{
  "contractName": "ReportStorage",
  "abi": [
    {
      "anonymous": false,
      "inputs": [
        {
          "indexed": false,
          "internalType": "uint256",
          "name": "id",
          "type": "uint256"
        },
        {
          "indexed": false,
          "internalType": "bool",
          "name": "completed",
          "type": "bool"
        }
      ],
      "name": "ReportCompleted",
      "type": "event"
    },
    {
      "anonymous": false,
      "inputs": [
        {
          "indexed": false,
          "internalType": "uint256",
          "name": "id",
          "type": "uint256"
        },
        {
          "indexed": false,
          "internalType": "string",
          "name": "imageHash",
          "type": "string"
        },
        {
          "indexed": false,
          "internalType": "string",
          "name": "location",
          "type": "string"
        },
        {
          "indexed": false,
          "internalType": "string",
          "name": "description",
          "type": "string"
        },
        {
          "indexed": false,
          "internalType": "bool",
          "name": "completed",
          "type": "bool"
        },
        {
          "indexed": false,
          "internalType": "address",
          "name": "reporter",
          "type": "address"
        }
      ],
      "name": "ReportCreated",
      "type": "event"
    },
    {
      "inputs": [],
      "name": "reportCount",
      "outputs": [
        {
          "internalType": "uint256",
          "name": "",
          "type": "uint256"
        }
      ],
      "stateMutability": "view",
      "type": "function",
      "constant": true
    },
    {
      "inputs": [
        {
          "internalType": "uint256",
          "name": "",
          "type": "uint256"
        }
      ],
      "name": "reports",
      "outputs": [
        {
          "internalType": "uint256",
          "name": "id",
          "type": "uint256"
        },
        {
          "internalType": "string",
          "name": "imageHash",
          "type": "string"
        },
        {
          "internalType": "string",
          "name": "location",
          "type": "string"
        },
        {
          "internalType": "string",
          "name": "description",
          "type": "string"
        },
        {
          "internalType": "bool",
          "name": "completed",
          "type": "bool"
        },
        {
          "internalType": "address",
          "name": "reporter",
          "type": "address"
        }
      ],
      "stateMutability": "view",
      "type": "function",
      "constant": true
    },
    {
      "inputs": [
        {
          "internalType": "string",
          "name": "_imageHash",
          "type": "string"
        },
        {
          "internalType": "string",
          "name": "_location",
          "type": "string"
        },
        {
          "internalType": "string",
          "name": "_description",
          "type": "string"
        }
      ],
      "name": "submitReport",
      "outputs": [],
      "stateMutability": "nonpayable",
      "type": "function"
    },
    {
      "inputs": [
        {
          "internalType": "uint256",
          "name": "_id",
          "type": "uint256"
        }
      ],
      "name": "completeReport",
      "outputs": [],
      "stateMutability": "nonpayable",
      "type": "function"
    }
  ],
  "bytecode": "0x608060405234801561001057600080fd5b50610911806100206000396000f3fe608060405234801561001057600080fd5b5060043610610068577c01000000000000000000000000000000000000000000000000000000006000350463185c6f84811461006d578063c942adf714610089578063d64a9b84146100ae578063fb45a7c2146100c3575b600080fd5b61007660005481565b6040519081526020015b60405180910390f35b61009c610097366004610520565b6100d6565b6040516100809695949392919061057f565b6100c16100bc366004610520565b6102bd565b005b6100c16100d13660046106ab565b6103d5565b6001602081905260009182526040909120805491810180546100f790610733565b80601f016020809104026020016040519081016040528092919081815260200182805461012390610733565b80156101705780601f1061014557610100808354040283529160200191610170565b820191906000526020600020905b81548152906001019060200180831161015357829003601f168201915b50505050509080600201805461018590610733565b80601f01602080910402602001604051908101604052809291908181526020018280546101b190610733565b80156101fe5780601f106101d3576101008083540402835291602001916101fe565b820191906000526020600020905b8154815290600101906020018083116101e157829003601f168201915b50505050509080600301805461021390610733565b80601f016020809104026020016040519081016040528092919081815260200182805461023f90610733565b801561028c5780601f106102615761010080835404028352916020019161028c565b820191906000526020600020905b81548152906001019060200180831161026f57829003601f168201915b5050506004909301549192505060ff81169073ffffffffffffffffffffffffffffffffffffffff6101009091041686565b600081815260016020526040902060040154610100900473ffffffffffffffffffffffffffffffffffffffff16331461037c576040517f08c379a000000000000000000000000000000000000000000000000000000000815260206004820152602360248201527f4f6e6c79207265706f727465722063616e206d61726b20617320636f6d706c6560448201527f7465640000000000000000000000000000000000000000000000000000000000606482015260840160405180910390fd5b600081815260016020818152604092839020600401805460ff1916831790558251848152908101919091527f73641afc337a9fb949550c4525ef2980969fa1beadd8cf550141d58a856cc6d2910160405180910390a150565b6000805490806103e483610786565b90915550506040805160c08101825260008054808352602080840188815284860188905260608501879052608085018490523360a08601529183526001908190529390912082518155905191929091908201906104419082610815565b50604082015160028201906104569082610815565b506060820151600382019061046b9082610815565b5060808201516004909101805460a09093015173ffffffffffffffffffffffffffffffffffffffff166101000274ffffffffffffffffffffffffffffffffffffffff00199215159290921674ffffffffffffffffffffffffffffffffffffffffff1990931692909217179055600080546040517fd3e8abb10a52be658a0451952a344237fb21aa26fdbf93ef5672a41654f582f692610513929187918791879190339061057f565b60405180910390a1505050565b60006020828403121561053257600080fd5b5035919050565b6000815180845260005b8181101561055f57602081850181015186830182015201610543565b506000602082860101526020601f19601f83011685010191505092915050565b86815260c06020820152600061059860c0830188610539565b82810360408401526105aa8188610539565b905082810360608401526105be8187610539565b9415156080840152505073ffffffffffffffffffffffffffffffffffffffff9190911660a090910152949350505050565b7f4e487b7100000000000000000000000000000000000000000000000000000000600052604160045260246000fd5b600082601f83011261062f57600080fd5b813567ffffffffffffffff8082111561064a5761064a6105ef565b604051601f8301601f19908116603f01168101908282118183101715610672576106726105ef565b8160405283815286602085880101111561068b57600080fd5b836020870160208301376000602085830101528094505050505092915050565b6000806000606084860312156106c057600080fd5b833567ffffffffffffffff808211156106d857600080fd5b6106e48783880161061e565b945060208601359150808211156106fa57600080fd5b6107068783880161061e565b9350604086013591508082111561071c57600080fd5b506107298682870161061e565b9150509250925092565b60028104600182168061074757607f821691505b602082108103610780577f4e487b7100000000000000000000000000000000000000000000000000000000600052602260045260246000fd5b50919050565b6000600182016107bf577f4e487b7100000000000000000000000000000000000000000000000000000000600052601160045260246000fd5b5060010190565b601f821115610810576000818152602081206020601f860104810160208610156107ed5750805b6020601f860104820191505b8181101561080c578281556001016107f9565b5050505b505050565b815167ffffffffffffffff81111561082f5761082f6105ef565b6108438161083d8454610733565b846107c6565b602080601f83116001811461087c57600084156108605750858301515b60028086026008870290910a600019041982161786555061080c565b600085815260208120601f198616915b828110156108ab5788860151825594840194600190910190840161088c565b50858210156108cb57878501516008601f88160260020a60001904191681555b505050505060020260010190555056fea2646970667358221220ec9506dad33de237c0ff04e31df14ca2c76ed363c04559adb70c87087d314f6464736f6c63430008150033",
  "immutableReferences": {},
  "source": "// SPDX-License-Identifier: MIT\r\npragma solidity >=0.4.22 <0.9.0;\r\n\r\ncontract ReportStorage {\r\n    struct Report {\r\n        uint id;\r\n        string imageHash;\r\n        string location;\r\n        string description;\r\n        bool completed;\r\n        address reporter;\r\n    }\r\n\r\n    uint public reportCount;\r\n    mapping(uint => Report) public reports;\r\n    \r\n    event ReportCreated(uint id, string imageHash, string location, string description, bool completed, address reporter);\r\n    event ReportCompleted(uint id, bool completed);\r\n\r\n    function submitReport(string memory _imageHash, string memory _location, string memory _description) public {\r\n        reportCount++;\r\n        reports[reportCount] = Report(reportCount, _imageHash, _location, _description, false, msg.sender);\r\n        emit ReportCreated(reportCount, _imageHash, _location, _description, false, msg.sender);\r\n    }\r\n\r\n    function completeReport(uint _id) public {\r\n        require(reports[_id].reporter == msg.sender, \"Only reporter can mark as completed\");\r\n        reports[_id].completed = true;\r\n        emit ReportCompleted(_id, true);\r\n    }\r\n}",
  "sourcePath": "D:\\waste-management-blockchain\\smart-contract\\contracts\\ReportStorage.sol",
  "compiler": {
    "name": "solc",
    "version": "0.8.21+commit.d9974bed.Emscripten.clang"
  },
  "schemaVersion": "3.4.16",
  "updatedAt": "2025-03-24T03:51:33.041Z",
  "networkType": "ethereum",
  "devdoc": {
    "kind": "dev",
    "methods": {},
    "version": 1
  },
  "userdoc": {
    "kind": "user",
    "methods": {},
    "version": 1
  }
}